:020000040800F2
:10000000F0FF0220D96606082167060849EE0108BC
:10001000216706082167060821670608000000001E
:10002000000000000000000000000000216706083A
:10003000216706080000000021670608A99600084D
:100040002167060821670608216706082167060858
:100050002167060821670608ADB20008B5B200089E
:10006000BDB20008C5B20008CDB20008216706087D
:100070002167060821670608216706082167060828
:100080002167060821670608216706082167060818
:10009000216706082167060821670608D5B200080F
:1000A000A9E00008B9E00008E1E0000829E0000844
:1000B00039E0000849E0000859E00008EDEB0008CD
:1000C000D5A60008F5EB0008E1A6000821670608A0
:1000D0002167060831C30508FDC30508E9C4050802
:1000E000DDB200082167060821670608F1E0000874
:1000F00001E1000811E1000899E000082167060805
:10010000216706082167060869E0000821670608DC
:10011000D5C50508C1C6050879E0000889E00008D2
:1001200055AF000869AF00087DAF000891AF000827
:10013000A5AF0008216706082167060821670608A1
:1001400021670608216706082167060895CF000881
:10015000B9AF0008CDAF000800000000ADC705082A
:10016000FDEB0008EDA60008000000000000000004
:1001700021670608216706082167060800000000BD
:10018000000000002167060899C8050885C9050810
:1001900021670608000000000000000000000000C9
:1001A00000000000000000000000000021670608B9
:1001B0002167060800000000216706080000000013
:1001C000000000000000000000000000000000002F
:1001D00000000000000000002167060821670608F3
:1001E00021670608A9CE00082167060821E100085A
:1001F000E1AF0008F5AF000809B000081DB0000825
:0C02000031B0000845B0000859B00008FB
:1080000010B40C4B4FF0E02C1A68DCF8180019681B
:108010008A42F9D159688842F6D89C684FF47A713F
:1080200001FB04F31B1AB3FBF4F35DF8044B01FBF3
:1080300002307047781A0020002A4FEA014C30B510
:1080400003460ABFE6468E468C4600F1C005002472
:1080500019689A6841EA0C0142EA0E029A60C3E983
:1080600000140C33AB42F3D1D0F8C030C0F8C44098
:1080700043EA0E03C0F8C030C0F8C84030BD00BFAE
:1080800030B4436919690A6822F001020A609A68EB
:10809000B3F80CC01468E26822EA0C02E2600468DB
:1080A00090F810C02068082202FA0CF2024039D180
:1080B0002248057B022000FA0CF06060002D2FD0D2
:1080C000187E01282FD0D3F8A0100131C3F8A010DA
:1080D000EFF31180502181F312885C68DD6B216819
:1080E00021EA05011D6C2943C0B2216080F311888B
:1080F00098681969DC6A00680C601C6B4C605C6BEA
:108100008C609C6BCC604262B3F87C20C2620A68CF
:10811000012422430A601C76C2689B891343C36012
:1081200030BC7047FEE7D3F8A4000130C3F8A400C8
:108130000B6862F300030B60F2E700BF781A0020BF
:1081400010B40C4C2369002B11DD002004F1140C39
:108150000146DCF8743003F1C00259600C339342DD
:10816000FBD12369013083420CF1AC0CF1DC5DF8EA
:10817000044B7047781A002070B5474C04EB40134D
:1081800093F8E02202B970BD072800F282804C22E9
:1081900002FB004294F8245694F825E692F8C66350
:1081A00083F8C66275454FF000034FEA401C82F821
:1081B000C6330CD00EEB4E0304EBC30393F8282612
:1081C000561E012E4FEA4E0355D9032A4DD004EB1B
:1081D0000C00A0F8C412EFF31182902383F31288ED
:1081E00090F8C632B0F8C41243EA41030021D2B27B
:1081F0009BB280F8C61282F31188217BD0F8DC4252
:108200001A0982EA13225A40B9B1D0F8C812646F31
:10821000D2431B019BB202F00F020120884013439E
:1082200004F1C0011D0402D46268024362600C3490
:108230005B00A1429BB2F5D170BDD0F8C812646F4B
:108240001B0110319BB202F00F0201208840134342
:1082500004F1C0011A0402D46268024362600C3463
:108260005B00A1429BB2F5D170BD0EF1010202F09C
:108270000302AA42ABD0734404EBC303034493F854
:1082800035160029A3D004EB0C03012283F8C62283
:108290009DE700239B78FFDE781A0020704700BF1F
:1082A000704700BF024B03EB401393F8E1027047A5
:1082B000781A00204368826C10B49A61EFF311823F
:1082C000502383F312884168C46B0B6823EA0403CC
:1082D000446C2343D2B20B6082F31188D0E907418A
:1082E0008268036912681C605960D0E909419C608A
:1082F000D960B0F85C10D16200235DF8044B0376BE
:10830000704700BF026890F810C01168022303FA9A
:108310000CF3194200D1704710B4074C41684FF07C
:10832000000C84F888C608686CF3000008605DF8EB
:10833000044B5360704700BF781A00200B4890F838
:10834000891689B101EB4101002310B4490000F204
:108350008C601C4650F82320063302B114608B4217
:10836000F8D15DF8044B7047704700BF781A0020C1
:108370000B4890F8891689B101EB4101002310B434
:10838000490000F28C601C4650F82320063302B1ED
:1083900014608B42F8D15DF8044B7047704700BF02
:1083A000781A0020204B1B78002B3BD12DE9F0419F
:1083B0001E4C94F889269AB31D4F04F28C62502605
:1083C0004FF02C0E1D4607E094F8891652F8180B52
:1083D00001338B42056023DA117C0029F4D0516807
:1083E0004FEA912CACF5801CBCF1530F4FF0FE000E
:1083F00098BF17F80C00EFF3118C86F31288D1F8B0
:1084000024800EFB004008F10108C0F87487486919
:1084100040F001005FFA8CFC48618CF31188D3E7CF
:10842000BDE8F081704700BF00000020781A0020EE
:108430002490060800EE100AB8EE400A704700BF0C
:10844000BCEEC00A10EE103A98B27047704700BFF9
:10845000704700BF704700BF704700BF01207047E2
:10846000094A0A4BD2F8E829D3F8BC02526AD3F879
:10847000C01292F85330012B08BFB2F85030A0EB75
:10848000010008BFC0187047781A0020702B002028
:10849000012380F85130704710B4EFF3118180232D
:1084A00083F312880C4AC9B2D2F8C432D2F8C84257
:1084B000D2F8C402D2F8C82281F31188904203F1A5
:1084C000FF33A3EB04038CBF0020012003EBC0208B
:1084D0005DF8044B704700BF702B0020074BD0F8AD
:1084E00094105B68D0F8A0205B1A9A42B8BFC0F81D
:1084F000A030012380F8CC3000207047001000E04D
:10850000072809D8054B4C2202FB0033B3F8C403FB
:10851000B0FA80F04009704700207047781A0020B8
:10852000072806D8034B4C2202FB0033012283F8B4
:10853000C6237047781A0020374A38B54C2303FB0E
:10854000002393F8D33303B938BD92F824C692F8C8
:1085500025369C450ED003EB430402EBC40494F88B
:1085600028E60EF1FF35012D4FEA430445D9BEF14F
:10857000030F3DD04FF04C0C0CFB002CACF8C41397
:10858000EFF31181902383F31288BCF8C4439CF865
:10859000C63343EA44030024C9B29BB28CF8C643F5
:1085A00081F31188190A147B81EA1311594004B12F
:1085B000C9434C2404FB00241B0118489BB201F062
:1085C0000F021A43D0F8CC52D4F80C040121A8476A
:1085D000D4F80814B4F8D0C3CA88D4F8043442EAF2
:1085E0000C02CA8058601A6842F001021A6038BD55
:1085F0005D1C05F003056545BCD01C4402EBC404BA
:10860000044494F835160029B4D04C2303FB00230E
:10861000012483F8C643ADE7781A0020702B0020B0
:1086200010B584464FEA810E102312F4004F14BF98
:108630000E2407245200013BCCF8004092B2F444CF
:10864000F3D100EB81128C01035142F8213012204A
:1086500010BD00BF10B584464FEA810E0424130BF1
:1086600003EB430318331201013CCCF8003092B203
:10867000F444F4D100EB01130A01845043F8214083
:10868000062010BD704700BF704700BF034B00EBD2
:10869000400003EBC00393F89D067047781A002052
:1086A000074B93F8D032834207D9064B00EB4000CA
:1086B00003EBC003D3F8A00670470020704700BF4B
:1086C000702B0020781A002036E700BF072808D852
:1086D000044B03EB401393F8E02212B1012283F81C
:1086E000C6227047781A0020072808D8054B03EBEC
:1086F0004013B3F8C402B0FA80F04009704700207C
:10870000704700BF781A0020054B93F8D03283429F
:1087100083BF044B03EB4013D3F8D0020020704713
:10872000702B0020781A002003689A69D10508D5BB
:108730004FF4807213218177DA611A6822F0800287
:108740001A609A69920508D54FF400721321817757
:10875000DA611A6822F080021A609A69510508D518
:108760004FF4806213218177DA611A6822F0800267
:108770001A609A69120508D54FF4006213218177B7
:10878000DA611A6822F080021A609A69D10408D569
:108790004FF4805213218177DA611A6822F0800247
:1087A0001A609A69920408D54FF400521321817718
:1087B000DA611A6822F080021A607047194B1A4A6F
:1087C0001968D2F8D432CB1A322B05DCD2F8E83251
:1087D000CB1A002B11DC7047D2F8D81249B192F8AD
:1087E000E4328888096803F001031B0100FA03F3EF
:1087F0008B610023C2F8E8327047D2F8D8326BB1EF
:1088000018689B8810B44469234218BF1B04323196
:108810005DF8044B8361C2F8E81270473231C2F848
:10882000E8127047781A0020702B0020D0E9092048
:10883000131A58425841704790F84F3830B53BB939
:1088400090F84D1890F84E380124DAB2914200D8D1
:1088500030BDB0F8565804FA03F22A43A0F856285F
:108860000133F2E70379024613F0010006D0D2E9A2
:108870000731D2685B1A013A03EA0200704710B56B
:10888000037913F0010304460ED0FFF7EBFF034614
:1088900050B1226A6369E1689B5C0132B2FBF1F07E
:1088A00001FB1022DBB22262184610BD03799B0740
:1088B0000AD5436A8269D154436A02690133B3FB22
:1088C000F2F102FB11334362704770470171704748
:1088D0000379014613F0020007D00B69D1E90921A1
:1088E000013B521A1A40D2B2981A7047074AD2F87E
:1088F000D8324BB192F8E4229988186802F001024C
:10890000130101FA03F3836100207047702B0020EC
:108910004FF40070034B1060D3F8F8320B60002066
:10892000704700BF702B0020002070470120704767
:10893000012070470020704710B41C6994420CD38A
:1089400094460A4661448C42996938BFA4EB0C02F4
:1089500061445DF8044B60F0D1B85DF8044B70479A
:10896000012343770020704708B503468269006BF6
:10897000D96A02449A6101B18847002008BD00BF4E
:10898000436A1B681B6A5B685B78024613F0010050
:1089900008BF5077704700BFF0B5214C214A224BE9
:1089A00095B0054604F10C00CDE90002049304F1F2
:1089B00010000023CDE90503CDE90E331B4A0992CF
:1089C0000B93221D1093139311936B6A2F7F0A92BE
:1089D0001868012302228DF80C3007938DF820309F
:1089E0008DF834308DF848303B1D02920E460C93C2
:1089F0005CF004F88FB1330E63710634320C330A25
:108A000022706370A670686A694652F017F96B6A43
:108A100018685BF0F3FF15B0F0BD0534EEE700BF5A
:108A200000000020982E002081890008618900083C
:108A300010B5044694B050220649684660F05EF8CE
:108A4000606A694652F0FAF8636A18685BF0D6FF0C
:108A500014B010BD78900608C2628161704700BFF3
:108A60002DE9F0410446406A00681E460F469046D4
:108A70005BF0C4FF237FA069002B35D0234D030E8C
:108A80006B75052205F116039870EA64020C000A62
:108A900058701A703B68AB650020D8F800302B6620
:108AA000012E2363286724D0022E1BD1D8F804207E
:108AB000A866796885F86400E966134414496A6712
:108AC0000120236385F87800E967124B627F606AB2
:108AD000A3F11401002A08BF194652F0AFF8E36A67
:108AE00073B1206BBDE8F0810B4B0422A3F1150597
:108AF000CAE7074B85F86460C5E91A306867E4E7A0
:108B0000636A18685BF07AFFEBE700BF00000020A3
:108B100069890008300000201500002000B583B0EE
:108B200081610192049A0093C26201236A4601A9FD
:108B3000FFF796FF03B05DF804FB00BF04307047F9
:108B40000D4B93F83023D3F82C130244D2B283F8A0
:108B5000302393F8302301441206C3F82C1305D5B3
:108B600093F8302382F0800283F83023034B0122F4
:108B700083F89420704700BF702B00200000002075
:108B80002DE9F047154FD7F83453ED0A20D00026D1
:108B9000B14607F55B787419D7F838331048D3F825
:108BA00028A0C7F8649304EBD474641010234246E1
:108BB000E102D0470F280BDD0A4B03F1100153F8F7
:108BC000042B013207D18B42F9D12546B542E2DCB4
:108BD000E802BDE8F087661CF8E700BF702B0020B4
:108BE000A82E0020DC2E002030B585B0684654F059
:108BF0007BFA1048104AD0F8FC10009B0F4D4FF044
:108C0000604441F08071C0F8FC10002100F1C840C0
:108C1000C4F8B05FA0F5650051601168084CA0F67B
:108C20007D60A0FB030341F001019B0CA360116078
:108C300005B030BD00ED00E0001000E055CEACC541
:108C4000781A002010B54FF44010104C82B054F048
:108C5000BBFA002301210222CDE9002120461A4659
:108C60004FF4C0515BF084FE636A23F470236362A7
:108C7000636A43F420236362636A23F4704363628C
:108C8000636A43F42043636202B010BD00000240F7
:108C900010B504465EF0D6FE81B22046BDE8104015
:108CA000FFF76ABA38B50B4D00EB400005F28C6354
:108CB00003EBC00393ED027AD3ED037AE7EE007A7B
:108CC000C4002544B0EE670A5EF0BCFED5F88C36D1
:108CD000186038BD781A002010B504465EF0B2FE68
:108CE00081B22046BDE8104026E400BF38B5194BDC
:108CF00093F8242693F825369A4226D1164A92F8FC
:108D00007C530DB34FF0000C02F56072614613689E
:108D100059621868083261F3C710186032F8040C01
:108D2000D862186840F080001860186861F341004C
:108D30001860DC6832F8020C0CF1010C2043654528
:108D4000D86022F8021CE2DC38BD5CF0D9F80028BB
:108D5000D4D138BD781A0020702B0020F8B50C4B08
:108D60001D685A69154005405D617DB1094F0126B6
:108D7000B5FA85F4C4F11F0407EB840306FA04F482
:108D8000D3F8C00303689847A543F1D1F8BD00BFED
:108D9000003C0140702B00202DE9F8430269C368B4
:108DA00012EA030828D005460E464FF00047B8FAED
:108DB00088F327FA03F2D2431B3B2A6108EA020830
:108DC000042B16D8DFE803F0332A221A0300B36A13
:108DD000002B35D003F1FF3900231FFA89F9B36264
:108DE000746A34B123682046494698476468002C69
:108DF000F8D1B8F1000FDAD1BDE8F8837068A98E18
:108E000003689847B8F1000FD1D1F5E7B068298F12
:108E100003689847B8F1000FC9D1EDE7F068E96B36
:108E2000036889B29847B8F1000FC0D1E4E7306910
:108E3000296C036889B29847B8F1000FB7D1DBE716
:108E4000EB6A1FFA83F9CBE738B51E4CD4F8BC3275
:108E500073B1D4F8C022D4F8BC329A4208D0D4F806
:108E6000C032E218013392F80004C4F8C03238BDB1
:108E7000154AD2F8E8290023526AC4F8C03292F8A1
:108E8000531001F0FF05B1B1B2F8505082F85330E1
:108E90005DB10E49D01C10F801CF01F801CB0133B0
:108EA000B2F850C09BB29C45F5D809484023043223
:108EB000012155F095FAC4F8BC52D4F8BC02002840
:108EC000CDD1D4E7702B0020781A0020702F00201D
:108ED0005C24002090F850305A1C0344D2B280F831
:108EE000502083F83C1090F851300BB1132A01D96F
:108EF0005CF0E6BE704700BF002280F851205CF0B5
:108F0000DFBEF8B5A0F668042379DB0727D56579BD
:108F100094F84C3805F001073D460BB3D4F84834BB
:108F20001A68D36A5B08536294F8503823B1B4F8D6
:108F30005A380133A4F85A38636C85F00102597924
:108F400018685BF017F8012384F84F38002384F881
:108F50004D3884F84E38A4F8563884F84C38F8BDAB
:108F600094F84F68012E04BF94F84D3884F84E38B9
:108F70002046FFF761FC636C4EB9012284F84F284C
:108F80007A4059791868BDE8F8405AF0F3BF0022DA
:108F900084F84F283A46F4E770B5A0F66804A1F1CA
:108FA0002903666C334D30680022302B426231D881
:108FB00095F8003C95F8011C0133DBB2012B85F8D4
:108FC000003C09D9B4F8563885F8002C5B08A4F8A1
:108FD00056384B1C85F8013C95F8012C0023082AD3
:108FE000A4F8583815D185F8013CB5F8023C013396
:108FF0009BB2032BA5F8023C08D92379DB0705D5E2
:10900000E36A94F856084BB3216B98470023A4F801
:10901000563870BD5B396C290CD8B4F8563885F8D1
:10902000002C5B0843F08003A4F8563895F8013C07
:109030000133CFE794F85138002BCDD1012285F8C8
:10904000003CA5F8023C802384F85128A4F8563847
:10905000717985F8012C5AF08DFFBDE7E3696269EB
:10906000D054E369E2680133B3FBF2F102FB113340
:10907000E361CBE7702B002070B5094C054609264B
:10908000013E00D170BD94F900001CF091FA031E5E
:1090900004DBEA1861781172A278EA540434EFE72D
:1090A000C89006082DE9F843DDF820800F461546E4
:1090B0000021202204461E465FF078FDB8F1000F23
:1090C0000CD0D8F80030E3811B0C2382D8F8043090
:1090D000B8F80A20E3821B0C6282238338465CF0D6
:1090E00013FEEB0619D4431EB8B107EB000C01E0E8
:1090F000013B12D31CF801EDBEF12E0FF8D1C01ABE
:10910000421E032AA8BF0322082B03F10109A8BFAE
:1091100008239046B9441A4606E008280246B94694
:10912000A8BF08224FF000084FF0203339462360D3
:10913000636020465FF0E2FC04F10800154B2381D8
:109140004246494683705FF0D9FC611EE21D11F86A
:1091500001CFACF16103192B9CBFACF1200C81F85D
:1091600000C09142F3D104F10A0011F8013FA3F1CC
:109170006102192A9CBF203B0B708142F5D1182354
:109180002373330CA382E572099B6683E361BDE818
:10919000F88300BF202020002DE9F04FD648DFF8EB
:1091A00088B3006887B0CBF8D402002B5ED09C183F
:1091B000A046154601F5FE760C461DE0002D62D056
:1091C000DBF80433AB4200F0C580DBF80033AB4280
:1091D00000F0F780DBE9C231AB424BD8A94200F284
:1091E0007281691A204658F0C3F90135454504F5E6
:1091F000007406F5007639D0DBF81033AB42DDD8C9
:10920000DBF82073EB1A396BDA0802328A4203F07A
:10921000070A02D3BB6B9A420BD939461046039218
:1092200058F076F9039A0746002800F08681CBF8BB
:1092300020033B79002B40F01D81D7F82890B9F12D
:10924000000F00F073813B6BD21AFB680AEBC2027D
:1092500003EB422220463B464FF400710135C847DC
:10926000454504F5007406F50076C5D1002007B029
:10927000BDE8F08FA942B4D94FF400720021204616
:109280005FF094FCB1E74FF40072294620465FF08E
:109290008DFC802384F8BE310C2384F8C231DBF8C6
:1092A0000013964ADBF8F832C4F8C6119142C4F8AC
:1092B000CA3100F30D81924A924F82FB010287FB73
:1092C00001070A44C817C0EB6212C0EB27308E4F6B
:1092D00084F8C10187FB02C7C2EB821C8010A1EB9E
:1092E0000C01013120F03F0017440843D117C1EBB6
:1092F000E7110A4484F8BF21804A84F8C001013B89
:10930000934200F3F1807E4A7E4882FB031280FB89
:1093100003101A44D917C1EB6212C1EB20317A480D
:1093200084F8C51180FB0270C2EB82178910DB1B29
:10933000013321F03F0110441943D317C3EBE0136D
:109340001A4484F8C41184F8C3214AF65523A4F8BA
:10935000FE314AE74FF0FF3384F8EC3184F8ED3109
:1093600084F8EE3184F8EF31522323706370612367
:10937000A37084F8E7314123E37084F8E631722367
:10938000002784F8E43184F8E531DBF81833C4F8B9
:10939000E8314FF4F0723946201D5FF007FC552389
:1093A00084F8FE316FF05503C4F8F071C4F8F4711D
:1093B000C4F8F87184F8FC7184F8FD7184F8FF3109
:1093C00013E74FF40072002120465FF0EFFB4F4B94
:1093D00003CB45F6EB03238090230222C4F8071049
:1093E000A3700821F823C4F8030061732274637525
:1093F000DBF8F8322273A27384F82C20DBF8002308
:109400009B1A2362DBE9C2239B1A63620023E37287
:10941000E3736377A377E37784F82D3084F82E30F5
:1094200084F82F3084F83130394BA361394BC4F8BC
:1094300042303E232377012384F83030364A80239C
:1094400084F8403084F846104AF65521A4F8FE11FD
:1094500003CA324BC4F84700C4F84B1003CB13883F
:10946000A4F84F309378C4F85200C4F8561084F82A
:109470005130BAE64FF40072002120465FF096FBAF
:10948000BAF1000F60D13B6C04F12009002B00F011
:1094900097803B6B22491122CDE900AA2046FFF7B5
:1094A00001FE3B6C1A6C002A00F099801B6B1D4971
:1094B000CDE900AA48461122FFF7F4FD04F1400966
:1094C0004FF4E07387E0E91A204658F051F88CE633
:1094D000FF2284F8C1214FF6FF72A4F8BF21074A8A
:1094E000013B93427FF70FAFFF2384F8C5314FF65E
:1094F000FF73A4F8C33128E7781A0020FF03FB00AC
:10950000832008829755454181808080B02C0708D0
:109510003F00FF0029940E0DBC2C0708C82C07083B
:10952000A82C0708AC2C0708702B002049464FF4E4
:10953000007220465FF03AFB57E62D4A231F43F89E
:10954000042F9E42FBD150E6D7E910274FEA0A13B9
:10955000002A42D0023B002F3FF447AE013BBF6CD4
:10956000F9D1A1464FF40073002F3FF43EAECDE990
:10957000035609EB030A059408E00024CDE90064D2
:10958000FFF790FDBF6CBFB1D14515D03C7939686C
:109590003B6B484607F11C06112209F12009002CFB
:1095A000EBD17A793C6942F02102CDE90064FFF702
:1095B00079FDBF6C002FE7D1DDE90356059C14E669
:1095C000CDE900AA5346DBF8FC1208222046FFF73B
:1095D00069FD4FF4F0737F6CC6E7013BBBE7CDE953
:1095E00000AA0449534648461122FFF75BFD65E790
:1095F000DEADBEEFAC2C070838B590F82830012B53
:10960000044606D0407F08B9012038BD00236377A7
:1096100038BD406A03681A7B92B9637F002BF3D090
:109620000A4D0B49022305F6044251F0C1FA95F8A0
:10963000053CD84303F0010300F001006377E7E73E
:109640001B6A002BE9D0002038BD00BF702B002022
:109650009800002038B5044694F82830012B07D034
:10966000637F0BB100236377012038BD1B6A23B1F0
:10967000606A03681A7B002AF8D1637F002BF3D05D
:10968000074D0849022305F6044251F091FA95F876
:10969000053C03F00102DB076277E5D5DCE700BF9C
:1096A000702B00209800002010B4EFF311831022DB
:1096B00082F31288094A0A4C11684FF0E020013108
:1096C0001160816951600022C4F8082C0269DBB284
:1096D00083F311885DF8044B704700BF781A0020AF
:1096E000702B002030B4EFF31183102282F3128824
:1096F0004FF0E0220E4894691169C90344BF01216B
:10970000C0F8081C0B4948BF94690D68D0F8082CB4
:10971000DBB283F3118889684FF47A702A4400FB26
:1097200001F31B1B30BCB3FBF1F300FB02307047AD
:10973000702B0020781A0020224B5B68C3F30803CB
:1097400030B4D3B9EFF31183BBB91F4B4FF0E02C0A
:109750001A68DCF8180019688A42F9D159688842F9
:10976000F6D89C684FF47A7101FB04F3181AB0FB29
:10977000F4F030BC01FB02007047EFF311821023BC
:1097800083F312884FF0E02310489C691969C903DC
:1097900044BF0121C0F8081C0B4948BF9C690D68F3
:1097A000D0F8083CD2B282F3118889684FF47A72FB
:1097B0002B4402FB01F0001B30BCB0FBF1F002FBBC
:1097C0000300704700ED00E0781A0020702B0020A5
:1097D0002DE9F047FFF7B0FF214D224F2C690646D7
:1097E0004FF000094FF0AC08002C2DDD00231A4685
:1097F00008FB0351013391F8B1109C4242EA010287
:10980000F6D142EA090A5FFA8AFA91467B68C3F305
:109810000803B3B9EFF311839BB9FEF7F1FB801B8B
:10982000B0F5FA6F02DCB9F1000FDDD1BAF1000F2B
:1098300004D00D4B93F80C2C542A09D05046BDE8A7
:10984000F087FFF74FFFEAE7CA464FF00009DDE770
:10985000B3F8142C0132A3F8142C5046BDE8F0875D
:10986000781A002000ED00E0702B0020AD4B1B7B30
:109870000BB901207047AB48AB490268AB4B2DE9EF
:10988000F04FA1FB02125209A3FB0213DB08A84907
:1098900003EB8303A2EB430385B0DAB201F5426424
:1098A000039204EB830791F8D022029201F57063D2
:1098B000002500F5317BA8469946029B984500F0AB
:1098C0000E81DBF81820DBF80460D2F89430D2F86F
:1098D00098500093B600FFF72FFF009B019006F110
:1098E000085606EB4316934B13F8F0CC904B93F8C5
:1098F0000C2C05F180603938542A06EB801006EBF9
:109900008C1302D18A49A1F816CC984240F2818189
:109910001968002900F07681196C002900F08B810C
:10992000D3F88010002900F08881D3F8C01003F527
:1099300080730029E9D19E1B98424FEAA61640F297
:109940006881A91B45294FF0000528BF45212846FD
:10995000AE4603EB81119A4615460DE01A6C002ABB
:1099600040F0F080D3F88020002A40F01B81D3F82B
:10997000C02003F580732AB9994206D91A68002AD3
:10998000ECD04033994200F2E1802A467546112D11
:1099900040F24781DEF1150100F14381664BD3F8B7
:1099A0009C309E423CBF644BC3F89C60614B019E5F
:1099B00053F8EC3CF61A002E1CDB019E03F5F42351
:1099C00003F590739E4288BF33465A4E88BF0533D5
:1099D00046F8EC3C584B574ED3F89C30052B86BFCD
:1099E000053BDBB2002306F8F03C534E4FF0FF334B
:1099F000C6F89C3031B100FA01F1C5F1140501201F
:109A0000A84008434D4BC0F3C43103EB8101D1F8AA
:109A1000C45000F01F0103EB8101D1F8C41041EAEA
:109A20000531C0F3441503EB8505C0F3842003EB37
:109A30008003D5F8C400D3F8C43041EA001141EAEC
:109A4000032181EA112383EA131303F00F00384B3B
:109A5000D3F8083F0F2803F1010340F0C080B1F5AF
:109A6000803F80F0BC80542A4FEA11113ED0304A2A
:109A7000B1F5606FC2F8083F44D0A9F80C1094F813
:109A80005830039883420CD0BA6823689B1A23602D
:109A90003A6B63689B1A63600023BB603B6384F886
:109AA0005800236801332360BB680133BB604FF665
:109AB000FF73994205D16368013363603B6B0133E7
:109AC0003B6308F10108B8F1080F04F15C0407F1E9
:109AD0005C0709F114090BF1200B7FF4EEAE184B73
:109AE000012201201A7105B0BDE8F08F1048B0F8CE
:109AF000102C0132A0F8102C0D4AB1F5606FC2F89D
:109B0000083FBAD1074A92F8253603EB430302EB2C
:109B1000C303434493F835360D2BAED1802389F827
:109B20001E30ACE7781A00201F85EB51CDCCCCCC91
:109B3000702B0020683C00200000002024900608C4
:109B4000703B0020803399427FF61FAFA3EB0A0CD5
:109B50003E4A4FEAAC1C0CF1010C82FB0CA2A2EBBA
:109B6000EC72012AB8BF012290404FF0010C9644DC
:109B7000013A0CFA02F210439C46DCF800209AB13C
:109B8000DCF84020002A5AD0DCF88020002A59D086
:109B9000DCF8C0200CF5807C42B16145EDD89A46D6
:109BA0006346E9E6C033EDE60CF1400C6145F6D9B9
:109BB000ACEB03029211254B013283FB02A3A3EB12
:109BC000E273012BB8BF012398409E440122013B60
:109BD00002FA03F3184363469A466346CCE6542AD6
:109BE00005D11B49B1F8102C0132A1F8102C184AEC
:109BF000C2F8083FD2F8043F0133C2F8043F4FF6E1
:109C0000FF713CE740339E1B98424FEAA6163FF691
:109C100098AEBCF1000F04D00E4B0CF1FF3C03F8E2
:109C2000F0CC542A7FF44DAF094AB2F8123C01330C
:109C3000A2F8123C45E780337DE6C0337BE60CF1A9
:109C4000800CB3E70CF1C00CB0E700BF565555557A
:109C5000702B0020683C002070B51E4C94F8242620
:109C600094F825369A422FD12569002D10DD1A4827
:109C7000267B0024FEB1037E012B1FD002691368EE
:109C8000013443F00103A54200F1AC001360F1D1AF
:109C9000FFF752FD114B53F8E84C002C0ADDE43B72
:109CA00003EBC40419689A88C86808330243A342C6
:109CB000CA60F7D170BDFEF7FDFADFE7002380F838
:109CC0009C30FEF7F7FAD9E75BF01AF90028CBD100
:109CD00070BD00BF781A00208C1A0020683C00205C
:109CE0002DE9F04FD0F80090057CD9F800304FF006
:109CF000020A0AFA05F52B4283B002D103B0BDE88F
:109D0000F08F4169DFF888B29F4B4FF04C0808FB99
:109D100001B804465868D8F8CC33B8F8D0231F6887
:109D2000D8F80464FB6823EA0203984AFB6042F80F
:109D3000C40C336823F0010333609BF80C3023B963
:109D4000C9F8045003B0BDE8F08F3046019153F0DC
:109D500049FA8E4A0199012388F8F03352F8BC3C45
:109D6000002B00F005813B6823F080033B604C230F
:109D700003FB01B34FF0FF3093F80034F862062B79
:109D80002FD8DFE813F0CD002E00A5002E0007002D
:109D90002E0083003B6A23F480733B624C2303FB59
:109DA00001B33C6A93F8010460F349243C623C6AC5
:109DB000C0F3400060F3CB243C62F86993F802449E
:109DC00064F30100F86193F80304FB6960F307137F
:109DD000FB61FB6923F00C03FB613B6A43F4807376
:109DE0003B624C2303FB01B331684BF6EF74214017
:109DF0000024A3F8E44331603068B3F8E41301436E
:109E00003160316893F8ED0360F30D3131603168F2
:109E100093F8EB0360F38B213160316893F8EA0328
:109E200060F309213160316893F8E90360F3C711E9
:109E30003160316893F8E80360F38611316093F87C
:109E4000EC03316860F345113160B3F8E6037168E3
:109E500060F30F017160D3F8DC03D3F80414B06031
:109E6000D3F8E003F06016204860086840F0010075
:109E70000860D3F8CC13B3F8D03309684248CC68F3
:109E80002343CB60436842F8C03C59E73B6A23F464
:109E900080533B624C2303FB01B3386A93F80144BF
:109EA00064F34D303862F86993F8024464F3092092
:109EB000F86193F80304FB6960F30F33FB61FB69FE
:109EC00023F44063FB613B6A43F480533B6288E7C1
:109ED0003B6A23F010033B624C2303FB01B33C6A53
:109EE00093F8010460F345143C623C6AC0F34000FF
:109EF00060F3C7143C62B86993F8024464F3092024
:109F0000B86193F80304BB6960F30F33BB61BB69AD
:109F100023F44063BB613B6A43F010033B6260E79C
:109F20003B6A23F001033B624C2303FB01B33C6A11
:109F300093F8010460F341043C623C6AC0F34000C2
:109F400060F3C3043C62B86993F8024464F301000F
:109F5000B86193F80304BB6960F30713BB61BB6985
:109F600023F00C03BB613B6A43F001033B6238E71B
:109F7000FFF7E2FB054A257CD4F80090019942F8EE
:109F8000BC0C0AFA05F5EEE6001000E0683C002083
:109F9000781A0020464B5B68C3F308032DE9F047AD
:109FA0000546002B5FD1EFF31183002B5BD1414BB2
:109FB0004FF0E0241A68A06919688A42FAD15968FA
:109FC0008842F7D89E684FF47A7101FB06F4241A90
:109FD000B4FBF6F401FB0244354E374F4FF0100846
:109FE0004FF0E02C4FF47A7E4FF001097268C2F313
:109FF0000802CAB9EFF31182B2B91A68DCF8180086
:10A0000019688A42F9D159688842F6D8D3F808A06D
:10A010000EFB0AF1091AB1FBFAF10EFB0212121B38
:10A02000AA42E3D3BDE8F087EFF3118288F31288E8
:10A03000DCF81800DCF81010C90344BFC7F8089C0E
:10A04000DCF818001968D7F808ACD2B282F311888E
:10A050005144D3F808A00EFB0AF2121AB2FBFAF22E
:10A060000EFB0122DBE7EFF31181102383F312884B
:10A070004FF0E023C9B29E691A6912F4803F0E4A7C
:10A080001EBF0120C2F8080C9E690A4B1868D2F85E
:10A09000082C81F31188024498684FF47A7101FB0F
:10A0A00000F4A41BB4FBF0F401FB024494E700BFEE
:10A0B00000ED00E0781A0020702B00202DE9F04719
:10A0C0003C4B3D4D3D4E00F1FF3810274FF0E02056
:10A0D0004FF47A7C6A68C2F30802002A54D1EFF385
:10A0E0001182002A50D11A68846919688A42FAD10B
:10A0F00059688C42F7D899680CFB01FEAEEB040E50
:10A100004FF00109BEFBF1FE0CFB02EE6A68C2F3E0
:10A110000802EAB9EFF31182D2B91A6884691968A2
:10A120008A42FAD159688C42F7D8D3F808A00CFBC0
:10A130000AF1091BB1FBFAF10CFB0212A2EB0E02B1
:10A14000B2F57A7FE2D3B8F10108C3D2BDE8F08757
:10A15000EFF3118287F3128884690169C90344BF50
:10A16000C6F8089C84691968D6F808ACD2B282F3A4
:10A1700011885144D3F808A00CFB0AF2121BB2FB61
:10A18000FAF20CFB0122D9E7EFF3118187F3128871
:10A1900084690269D20303D50122C6F8082C8469B8
:10A1A000D3F800E0D6F8082CC9B281F311887244C4
:10A1B000A1E700BF781A002000ED00E0702B00201E
:10A1C0002DE9F04F01308E4C8E4D8F4E83B001F152
:10A1D000FF385FFA80FA102758F03AFB4FF4FA7B09
:10A1E0004FF0E0224FF47A7CC1466B68C3F308035A
:10A1F000002B40F0CB80EFF31183002B40F0C680A2
:10A200002368916920688342FAD160688142F7D857
:10A21000D4F808800CFB08F0A0EB010EBEFBF8FEA2
:10A220000CFB03EE4FF00108CDF804906B68C3F30C
:10A230000803002B40F08E80EFF31183002B40F0D9
:10A2400089802368916920688342FAD160688142DD
:10A25000F7D8D4F808900CFB09F0411AB1FBF9F1DA
:10A260000CFB0313A3EB0E03B3F57A7FDED3BBF134
:10A27000010BDDF80490B8D150464FF47A7B58F0CA
:10A280009FFF4FF0E022DC466B68C3F30803002B0E
:10A2900040F09980EFF31183002B40F09480236805
:10A2A000916920688342FAD160688142F7D8D4F876
:10A2B00008800CFB08F0A0EB010EBEFBF8FE0CFBC7
:10A2C00003EE4FF00108CDF804906B68C3F3080368
:10A2D00023BBEFF311830BBB236891692068834292
:10A2E000FAD160688142F7D8D4F808900CFB09F0E5
:10A2F000411AB1FBF9F10CFB0313A3EB0E03B3F509
:10A300007A7FE2D3BBF1010BDDF80490BCD1B9F147
:10A310000108BFF461AF03B0BDE8F08FEFF3118324
:10A3200087F3128890691169C90344BFC6F8088C85
:10A3300090692168D6F8089CDBB283F31188494400
:10A34000D4F808900CFB09F31B1AB3FBF9F30CFBD0
:10A350000133D2E7EFF3118387F312889069116913
:10A36000C90344BFC6F8088C90692168D6F8089CD8
:10A37000DBB283F311884944D4F808900CFB09F34D
:10A380001B1AB3FBF9F30CFB01336BE7EFF31180FE
:10A3900087F3128891691369DB0303D50123C6F89B
:10A3A000083C91692368D6F808ECC0B280F31188A4
:10A3B000A06873440CFB00FEAEEB010EBEFBF0FE8A
:10A3C0000CFB03EE2EE7EFF3118087F312889169FF
:10A3D0001369DB0303D50123C6F8083C91692368A0
:10A3E000D6F808ECC0B280F31188A06873440CFB67
:10A3F00000FEAEEB010EBEFBF0FE0CFB03EE60E7D1
:10A40000781A002000ED00E0702B00202DE9F043C9
:10A41000144CDFF8549083B004F520764FF0020816
:10A4200002E00834B4421AD094F90650002DF8D155
:10A43000276807F13F4303F57E0309EB93230834B4
:10A4400093F8440159F0CEF934F8041C0123CDE906
:10A4500000582A4638465AF08BFAB442E4D103B089
:10A46000BDE8F083B03B00202490060830B50C46D0
:10A4700083B00546D8B1036803F13F4303F57E037B
:10A480009B0A0C4A134493F8440159F0ABF9C4F306
:10A49000810204F00303CDE90032C4F34113A9881B
:10A4A0002868C4F300125AF063FA03B030BD4FF0CD
:10A4B000FF33E6E72490060800B1D7E7704700BFF6
:10A4C00070B50E4B93F8D062AEB10D4C002504E090
:10A4D0000135B54204F120040DD0237F002BF7D0C5
:10A4E000E0680028F4D0217D0135FFF7BFFFB542B9
:10A4F00004F12004F1D1012070BD00BF702B0020B9
:10A500003C1D002070B40D4A0D4E0E4C0E4D4FF008
:10A51000010C36F8020F002340FA03F1C90704D5F5
:10A520000CFA03F11460918008320133102BF3D13F
:10A5300004F58064AC42ECD170BC7047B03B0020A5
:10A540006E910608000002400020024038B5040960
:10A55000013C072C1AD80F4D05EB440200F00F0305
:10A56000B2F84C0140FA03F212F0010210D00122BD
:10A5700002FA03F3013B184025445EF0ABFB95F86B
:10A580005C31054A034402EBC30038BD002038BDEE
:10A59000104638BD24900608B03B0020F8B502688C
:10A5A000017C0446022310688B40184206D11068D3
:10A5B00008238B40184218BF5360F8BD656953608B
:10A5C00004238B405360EFF31183502282F31288EF
:10A5D0002A6C1168C9070BD5DBB283F3118895F893
:10A5E0006C3013B195F87D60FEB12268217CDEE706
:10A5F000506880B288B9D5E909618E422BD0AF6925
:10A600000F44D76089B222D806462869401A80B222
:10A6100050600021AE6285F86C10116841F00101B4
:10A62000DBB2116083F31188D9E795F87A00FFF760
:10A630008DFFAB6EDA68012166F3C302DA6085F83C
:10A640007D100028D1D02821FFF710FFCDE7711A27
:10A6500089B25160DDE7012285F86C20BCE700BFBC
:10A66000174A1849D2F8883030B443F47003C2F85E
:10A6700088300B6843F001030B600B689B07FCD527
:10A680008B68104A23F003038B60936813F00C0F60
:10A69000C3F38101F9D19160136809480A4D23F091
:10A6A000867323F4803313604FF41F044FF000636C
:10A6B0005560C2F8A010D46030BC8360704700BF02
:10A6C00000ED00E00038024002300300704700BF98
:10A6D000002070470148FEF727B800BF483E002021
:10A6E0000148FEF721B800BF9C3E00200148FEF75C
:10A6F0001BB800BFF03E002030B1036882881B69A0
:10A700001A4214BF01200020704700BF10B1036837
:10A7100082889A62704700BF10B1036882889A618C
:10A72000704700BF2DE9F04F076889B07D6807903A
:10A73000D7E904607168AA6812F08002FBD1BB6996
:10A74000347C93F80EE006920EF0030ECDF814E080
:10A7500093F80DE0326893F8119093F80F8001920E
:10A760000EF0010A93F80CE05A8903920EF0010EE4
:10A770004FF0020CCDF810E093F810E01A68029246
:10A780000CFA04F40EF0010B44F00C04B3F808E0EA
:10A790005B6809F0030908F00308002800F08680D0
:10A7A000019A079E466146685460047C0068069AD8
:10A7B0000CFA04F444F00C044460086862F30000EE
:10A7C0000860306862F300003060326842EA0C02D0
:10A7D00032600A684BF6EF7002400A600A684EEA7F
:10A7E00002020A600A6869F30D320A600A6868F3B7
:10A7F0008B220A600A68059C64F309220A600A68D1
:10A800006AF3C7120A600A68049C64F386120A603D
:10A810000A686BF345120A604A68039C64F30F02EE
:10A820004A60029A8A60CB603268FB6902403260FB
:10A8300030681A89024332603268587C60F30D3206
:10A8400032603268D87B60F38B2232603268987B4A
:10A8500060F3092232603268587B60F3C7123260BD
:10A860003268187B60F386123260187C326860F3BD
:10A87000451232605889726860F30F027260D3E942
:10A880000023B260F360336843F0010333600B6868
:10A8900043F001030B606B6843F001036B606B686E
:10A8A00043EA0C036B6009B0BDE8F08F079A726150
:10A8B000019A54600A6860F300020A600A684BF665
:10A8C000EF7002400A600A684EEA02020A600A68F3
:10A8D00069F30D320A600A6868F38B220A600A681D
:10A8E000059860F309220A600A686AF3C7120A60D1
:10A8F0000A68049860F386120A600A686BF34512CE
:10A900000A604A68039860F30F024A60029A8A60FC
:10A91000CB600B6843F001030B600B6843F002034C
:10A920000B606B6843F002036B6009B0BDE8F08F09
:10A9300070B4046890F838506368012284F82420C9
:10A940001A6822F040021A60B0F804C022896245F9
:10A9500016D0BCF5807F6146A8BF4FF480710229F4
:10A96000B8BF02211A6891FAA1F1B1FA81F122F07F
:10A970003802013942EAC10292B21A60A4F808C052
:10A98000027BA17A914209D0196872B321F00201C9
:10A990001960196821F001011960A2721A6842F069
:10A9A00040021A60226A267B9368C3B100218C465C
:10A9B00014329C4493680131002BF9D196B18DB1CA
:10A9C000012909D8BCF1070F06D801EB81018B00E2
:10A9D000226A13441B7B2BB970BC50F091BA0EB1A4
:10A9E000002DF5D170BC50F0BBBA41F002011960E6
:10A9F000196841F001011960A272CFE738B52C4AFD
:10AA0000D0F890305268D0F88810044673B1501ACC
:10AA100083420BDC94F88030C4F88820012B10D0DE
:10AA2000D4F884300133C4F8843038BDD4F894307D
:10AA3000C4F888200B44C4F88C3094F88030012B83
:10AA4000EED16168201D04F19805EFF3118C1023FD
:10AA500083F3128863681B6A0BB3D4F8A0302A46CC
:10AA60001BB1D3691432002BFBD10B6A6BB199680F
:10AA700039B9934209D0196829B15B6899680029EE
:10AA8000F7D01433F3E7C3E900055FFA8CFC8CF3CD
:10AA90001188D4F884300133C4F8843038BD0D6295
:10AAA0005FFA8CFC8CF31188FFF742FFB8E700BF18
:10AAB000001000E02DE9F041826992F88C30012B02
:10AAC0008AB0054649D0023B012B50D892F8FC30A1
:10AAD000D26C2D4C63F07F03137087693B6DD7F800
:10AAE000108003F1010E0FCCEC46ACE80F00FB6CBC
:10AAF000CDE9003E0FCCACE80F0094E8030007F16D
:10AB000010068CE80300EFF31180102383F3128802
:10AB10003B691B6A002B2ED0029B6A461BB1D3698E
:10AB20001432002BFBD1D8F8203073B1996839B9B1
:10AB30009A420AD0196829B15B6899680029F7D050
:10AB40001433F3E71E60C3F804D0C0B280F3118859
:10AB5000AA6911690B6A002BFCD1136D5A8852BA8D
:10AB6000EA819A8852BA2A82DB885BBA6B8201201A
:10AB70000AB0BDE8F081C8F820D0C0B280F31188D7
:10AB80003046FFF7D5FEE3E7889106082DE9F0414E
:10AB900090F88C30056D012B8AB004466FD03ED9F9
:10ABA000023B012B67D890F8FD30C26C5A4E63F01F
:10ABB0007F031370036DD0F8108003F1010E00F1D4
:10ABC00010070FCEEC46ACE80F00E36CCDE9003E79
:10ABD0000FCEACE80F0096E803008CE80300EFF31B
:10ABE0001180102383F3128823691B6A002B00F065
:10ABF0008A80029B6A461BB1D3691432002BFBD1B9
:10AC0000D8F8203023B3996839B9934220D0196815
:10AC1000D9B15B6899680029F7D01433F3E7C36CA6
:10AC20004FF0FF321A605A609A60DA60D0F89030C4
:10AC30000522B3F57A7FC0F8A0203BD8032380F823
:10AC40008C3001200AB0BDE8F0811F60C3F804D049
:10AC5000C0B280F311882269136A002BFCD16B8883
:10AC60005BBAA4F88030AB885BBAA4F88230EB887A
:10AC70005BBAA4F8843001200AB0BDE8F08190F8F6
:10AC8000FC2090F8FD309B1A5B100133DBB205EB22
:10AC9000430235F813305BBAA0F8803053885BBAB2
:10ACA000A0F8823093885BBAA0F8843001200AB003
:10ACB000BDE8F08103691A7B0AB35B69FBB190F8C8
:10ACC0004830E3B190F8FC30C26C606563F07F03FC
:10ACD000137090F8FC1090F8FD30026D0F48C4F826
:10ACE000B4005B1A07330121C4F8AC30E36C84F87C
:10ACF000B0100A44C4E9293284F88C10BBE702235F
:10AD000084F88C30B7E7C8F820D0C0B280F311883F
:10AD10003846FFF70DFE9EE788910608DD8400089F
:10AD2000F8B54569002D70D02C68236A1B7B002B79
:10AD300077D1D4E90467317C6368022202FA01F119
:10AD4000D6E9006041F00C01002F35D0D0F800C0EA
:10AD5000D7F804E02CF0010CC0F800C0DEF80000C9
:10AD600020F00100CEF800007160397C8A4039681B
:10AD700042F00C024A605A6822F002025A605A6895
:10AD800022F001025A60236A1B6943B1236A686C8E
:10AD90001B699847012800F08D80022837D0236A6C
:10ADA000DA69FAB95869002842D099692162C3E981
:10ADB0000522BDE8F840BBE59A681706FCD49A68FE
:10ADC000D2070DD4026822F00102026071605A6855
:10ADD00022F002025A60236A1B69002BD6D1DEE7FB
:10ADE000DA68ECE7226A94F82410127B1433D2B2AA
:10ADF0002362002937D1002A55D12846FFF792FC5B
:10AE00002B681A6AD169002914DCF8BD2362236A11
:10AE1000DA691433002AF9D1236ADA69002AE1D108
:10AE2000C0E7AB68002B84D01A689B88936180E7E9
:10AE30002062F8BDD06951699C69002963D0012561
:10AE400065736160596980B260810029DDD09269C3
:10AE50003349DB69002A0ABF0A46012100215973E0
:10AE60005A605881F8BD276A2E68B9683B68B06996
:10AE7000002B4ED04FF0010C80F80DC043608BB218
:10AE80007169438151B1F06979684381244B00298C
:10AE90000ABF19460123002341604373002384F84D
:10AEA0002430002AA9D0AB68002BA6D01A689B8852
:10AEB0009362A2E7236A2A68143B2362136AD96962
:10AEC00000297FF76CAFDE6959699769A1B18446A3
:10AED00087F80DC07960B1B256697981002E3FF4D0
:10AEE0005EAFD2699B6951810D49002B04BF0020E0
:10AEF0000B465073536052E78C460A494FF0FF0EE1
:10AF000001F8A0EFE4E70D460649FF2601F8A06F1F
:10AF100096E79C46034B4FF0FF0E03F8A0EFABE71C
:10AF2000803F00200000002008B51D20FFF70EFB29
:10AF300010B190F9063053B11E20FFF707FB10B196
:10AF400090F9063003B108BD5523C38008BD5523D1
:10AF5000C380F1E70348D0F8B0300BB1A4301847F4
:10AF6000704700BF000000200348D0F8D4300BB178
:10AF7000C8301847704700BF000000200348D0F8D1
:10AF8000F8300BB1EC301847704700BF00000020CC
:10AF90000348D0F81C3113B100F58870184770478A
:10AFA000000000200348D0F8403113B100F59A703A
:10AFB00018477047000000200348D0F8643113B1EF
:10AFC00000F5AC7018477047000000200348D0F827
:10AFD000883113B100F5BE7018477047000000209B
:10AFE0000348D0F8AC3113B100F5D0701847704762
:10AFF000000000200348D0F8D03113B100F5E27012
:10B0000018477047000000200348D0F8F43113B10E
:10B0100000F5F47018477047000000200348D0F88E
:10B02000183213B100F50370184770470000002074
:10B030000348D0F83C3213B100F50C701847704744
:10B04000000000200348D0F8603213B100F51570FD
:10B0500018477047000000200348D0F8843213B12D
:10B0600000F51E7018477047000000200F4B104974
:10B07000013800EBC00003EB8003086BD3F8A42079
:10B080000C4B9A4214BF4FF080734FF48003184367
:10B0900082B00863096B0B400193019BD2F8003129
:10B0A00043F00103C2F8003102B0704700000020F5
:10B0B00000380240006402402DE9F0410138124C92
:10B0C00000EBC00004EB80041048D4F8A480804555
:10B0D00014BF382036200F4615461E4658F082FB16
:10B0E000D8F8003143F00103C8F8003194F9B500F5
:10B0F000C4F8B070C5F30112A909C4F8B860BDE87E
:10B10000F04152F03DBB00BF00000020006402404F
:10B11000D3B20D2B2BD800B5164B4FF0000C06E028
:10B120000CF1010CBCF1200F03F103031CD093F8C8
:10B1300000E08645F4D193F801E08E45F0D10E4B46
:10B140000E480CEB4C0C02EB4202634400EB820114
:10B1500093F88E31C1F8A43200F5277000EB82001D
:10B1600081F89C325DF804FB00205DF804FB0020B0
:10B17000704700BFB0910608249006080000002028
:10B1800010B40C4C002304F5477C01E0152B0CD0C7
:10B1900003EB430201331CF802108142F6D1144440
:10B1A00094F91E035DF8044B70474FF0FF305DF8D3
:10B1B000044B7047683C002030B5134C002304F565
:10B1C000F67C02E001331C2B1BD05CF83350854227
:10B1D000F8D10CEBC30EDD009EF804E08E45F1D1F2
:10B1E0000A4B02EB42022C4403EB820194F8F1413A
:10B1F000C1F8A44203F5277303EB820081F89C4257
:10B2000030BD002030BD00BF2490060800000020A3
:10B21000F0B110B504460F4894F804E0002300F59F
:10B22000477C01E0152B11D003EB430201331CF8DE
:10B2300002107145F6D18318617993F91E232068B5
:10B24000D3B20D2B02D8BDE81040B5E7002010BDE9
:10B2500000207047683C0020800AA0F58010532829
:10B2600006D8044B1B5C0E2B02D8034AD0567047FD
:10B270000020704724900608B02D070808B508483C
:10B2800051F0A2FF4022074800215DF08FFC064BE1
:10B290004FF0FF32C3F85C23C3F85F2308BD00BF43
:10B2A0000E004400302F0020683C00200120FDF7F4
:10B2B00055BD00BF0220FDF751BD00BF0420FDF7C2
:10B2C0004DBD00BF0820FDF749BD00BF1020FDF7B0
:10B2D00045BD00BF4FF47870FDF740BD4FF47C4092
:10B2E000FDF73CBD40B338B505461446FFF7BEF840
:10B2F000AB882968B3FA83F3C3F11F0303F0070097
:10B30000800013F0F80F04FA00F20AD04B6A0F2401
:10B3100004FA00F023EA00034B624B6A1A434A62C4
:10B3200038BD0B6A0F2404FA00F023EA00030B6215
:10B330000B6A1A430A6238BD704700BF2DE9F04717
:10B34000DFF874A2542303FB00A384B0D3F8C881B0
:10B35000B8F1000F08D0D3E974490746002C00F07B
:10B36000E48094F9063013B104B0BDE8F087B9F178
:10B37000000F00F0EA8099F90630002BF4D1431C4D
:10B38000DBB21522E371A27189F80730162389F820
:10B39000063098F8280058F025FA2046FFF7BCF947
:10B3A0004846FFF7B9F919212046FFF785F819211A
:10B3B0004846FFF781F80926332524B9A6E0013D68
:10B3C00008D0FEF7E7FD2368A28819690A424FF00A
:10B3D0000A00F4D09A620520FEF7DCFD2368A288FB
:10B3E0009A610520FEF7D6FD013EE5D1332524B94B
:10B3F00096E0013D08D0FEF7CDFD2368A2881B69C9
:10B400001A424FF00A00F4D02046FFF77FF90520DA
:10B41000FEF7C0FD4846FFF779F90520FEF7BAFDB3
:10B420002046FFF779F90520FEF7B4FD4846FFF7FF
:10B4300073F90520FEF7AEFD2046FFF75DF9002801
:10B440007FD12046542407FB04F40AEB040595F849
:10B45000DA3195F8D821002B0CBF16263626314656
:10B46000FFF740FF95F8D92131464846FFF73AFFEC
:10B4700049483C22002120445DF098FBD5F8C831B2
:10B4800068465C68C5F8E04151F02EFEB5F8DC1165
:10B49000039856F02DFF414B9C4205465AD0404B35
:10B4A0009C4262D03F4B9C426AD0542303FB07A3CB
:10B4B000D3F8E021136843F001031360236823F0FD
:10B4C000010323602561236843F470632360A3684C
:10B4D00023F48063A360A3686FF30903A360A368E8
:10B4E00043F40043A3600022114698F92A0052F069
:10B4F00047F9002298F92900114652F041F92368D2
:10B5000043F0010323602FE7FEF744FD013D4FF0B8
:10B510000A00F9D10520FEF73DFD62E7FEF73AFD8E
:10B52000013D4FF00A00F9D16EE7B9F1000F3FF489
:10B5300030AF99F90630002B7FF416AF7B1CDBB2DD
:10B5400022E74846FFF7D8F87BE71523A371431C91
:10B55000E3711EE7144851F037FE144AD2F8203840
:10B5600023F40013C2F820389FE7114851F02CFE55
:10B570000E4AD2F8203823F48003C2F8203894E72A
:10B580000C4851F021FE094AD2F8203823F4000378
:10B59000C2F8203889E700BF483E00200054004030
:10B5A00000580040005C00401500200000300240C0
:10B5B0001600200017002000683C00202DE9F0470D
:10B5C000794D05EB0013D3F86443002C00F0A580FF
:10B5D00093F86E7306464FEA0018384658F002F9A1
:10B5E0007B09012207F01F07013BBA40042B09D851
:10B5F000DFE803F09B03A1A795006C494B6923EAA0
:10B6000002034B6105EB0803013693F86803FEF76C
:10B610009DFFF6B2824610B11223C671837105EB0D
:10B62000080393F86903FEF791FF814610B11323D5
:10B63000C671837105EB080393F86A03FEF786FF72
:10B64000074610B11423C67183714544504695F8DE
:10B650006B232621FFF746FE95F86C2348462621EA
:10B66000FFF740FE95F86D2306213846FFF73AFEB6
:10B670004F4B9C4276D04F4B9C4268D04E4B9C42E5
:10B680007BD04E4B9C4200F08380636802210B43C9
:10B690006360636843F001036360E36923F400635C
:10B6A000E361236823F400432360236823F4804389
:10B6B0002360236823F480632360236843F40073CA
:10B6C0002360236843F480732360236843F00403FA
:10B6D0002360636823F400736360636823F48073FA
:10B6E0006360236861F3C5032360236823F080034C
:10B6F0002360236823F40063236023680B432360E3
:10B70000236843F0010323602369072262F30F03D8
:10B710002361236843F040032360BDE8F087234999
:10B720000B6A23EA02030B626CE720490B6923EAE8
:10B7300002030B6166E71D498B6923EA02038B61F3
:10B7400060E71A494B6A23EA02034B625AE71C4836
:10B7500051F03AFD1B4AD2F8203823F48043C2F856
:10B76000203892E7184851F02FFD164AD2F82438B5
:10B7700023F48053C2F8243887E7144851F024FD9D
:10B78000104AD2F8203823F40043C2F820387CE76E
:10B790000F4851F019FD0B4AD2F8243823F4005316
:10B7A000C2F8243871E700BF683C0020003802402E
:10B7B0000030014000380040003C004000340140AF
:10B7C0000E002000003002400C0024000F0020007A
:10B7D0000D0024002DE9F04F8FB000230793A74BF5
:10B7E000A74CA84FA3F53376A44D4FF00009A64B04
:10B7F000D5F800B093F8B6234FEA9B23A3F5801346
:10B80000532B00F2CD80F35C0E2B00F2C980012A8D
:10B8100017F903A000F00581022A02D1BAF1080F3E
:10B8200032D14FF001081FFA88F1504612F082FD24
:10B8300012F00CFE90F9003013B1542B40F001824D
:10B8400008F10108B8F1050FEDD1079B0021002B8D
:10B8500000F0B0808A4A09E0F35C0E2B0DD8FB564D
:10B8600053450DD0AC32944200F0A180906803683B
:10B870009B0AA3F58013532BEED900235345F1D136
:10B88000437968799842EDD109F10109B9F1080FBE
:10B8900005F11C05ABD1079B0133042B079304F181
:10B8A000AC04A1D10123DFF8F8B19A46774B93F8A5
:10B8B000D0220AF1FF339A426FDD734BDBF80C6044
:10B8C0009BF8102093F8CA330892002E00F0D5831D
:10B8D000B2883068B2FA82F200F13F40C2F11F0232
:10B8E00000F57E000792800A694A1569002D40F331
:10B8F000A8801432002705E00137AF4202F1AC0204
:10B9000000F09C8011688142F6D1079B5C4ACBF81D
:10B910000430AC2303FB0727CBF8187026B15FFA7D
:10B920008AF3F3710323B371079D7B6CF96B680095
:10B9300001220324844002FA00F003437B64544B49
:10B940001B7B2143F96302FA05F4B96C002B00F06C
:10B950005C812143B9646EB14B4BB28893F85C1B98
:10B960003368490141F0050101F0E5019A61304673
:10B97000FEF77CFD786FA1B20122FCF75DFB384633
:10B980000AF1010AFCF796FC40F20113BAF1090F23
:10B99000ABF81C300BF1200B88D10FB0BDE8F08F55
:10B9A000013A012A7FF670AF4FF0000A39E700290B
:10B9B0007FF46AAFA8683749002205E001320E2AF9
:10B9C00001F10C0100F06B834B689842F6D1697964
:10B9D00052B25846FFF7F0FB2F4A406851680023E7
:10B9E000884203F1010309D00E2B02F124023FF437
:10B9F0004BAF5168884203F10103F5D1DBB2274A0E
:10BA0000013B03EBC30302EB830393F9BC30002B30
:10BA10007FF43AAF194BC9EBC90903EB8903A36063
:10BA200039E7BAF1010F3FF4FCAE09F10109B9F1B0
:10BA3000080F05F11C057FF4DAAE2CE7042F00F0A7
:10BA400006811349AC2202FB0512D1690991002934
:10BA500000F00A83506154210130C4B282F8BC1056
:10BA60000B4982F8BD406A1C0A61099A09481768A7
:10BA70005179D2F808E09C46002219E0F0920608BD
:10BA80008C1A0020B02D0708683C0020702B002085
:10BA9000781A00209C020020A40000200000002052
:10BAA0003C1D002001320E2A00F10C0000F0F7824C
:10BAB00043689E45F6D152B23846CDF82CC00A9163
:10BAC000FFF77AFBDFF8C892A44BD0E90180AC22E3
:10BAD000CC4602FB0532C2E90980DCF804000022F2
:10BAE0008045DDE90A1302F101020AD00E2A0CF1A9
:10BAF000240C3FF452AFDCF80400804502F101024F
:10BB0000F4D1D2B29648013A02EBC20200EB8202B3
:10BB100092F9BC0000287FF440AFAC2082F8BD4011
:10BB200000FB05F4601000EBA400C0EBC0100A9409
:10BB300000EB803084010A9804EBA004640004EB5D
:10BB4000A0044FF08C0C542082F8BC000CFB04F2D3
:10BB500004EB4400834C00EB001004EB800004F580
:10BB60004C7404EB420E7D4A0A9C14193268A2619F
:10BB70003322C4F88C207A4AC4F88800062BC4E922
:10BB80002AECD2F8442369D07748784C072B784BBD
:10BB900018BF0346774818BF204601396F4CB2FBE7
:10BBA000F0F0B2FBF3F3421EC8B2AC2101FB054139
:10BBB000013BA1F8903092B20023A1F870200B90C5
:10BBC000FA62BB627A6942F001027A613A6863F311
:10BBD00009223A603A6863F306123A603B6843F020
:10BBE00080033B603B6843F080033B604300D9B275
:10BBF0000C93072935D8DFE811F054003400A9016F
:10BC0000340014023400DA01F701079B103302FA02
:10BC100003F30B43BB6476B1574B326893F85C1B5C
:10BC2000B388490141F005011B0401F0E50193616E
:10BC30003046FEF71BFC786FA1B20022FCF7FCF93E
:10BC40009DE6079B0121002B7FF404AE1CE64A4AC7
:10BC5000032382F8CB330FB0BDE8F08F474B484841
:10BC60009BE73B6823F001033B600124002304931E
:10BC700002930093062223463846039401940D91C3
:10BC800058F006FE0D992246384652F0B7F90D9944
:10BC90000439032920D8DFE811F0DC011F00A201DC
:10BCA000BF013B6823F001033B60002101240A230C
:10BCB0007B6306222346CDE90341CDE90141009192
:10BCC000384658F0E5FD22460021384652F096F9F4
:10BCD000BB6943F00803BB61099B1879002840F059
:10BCE00056813B6843F001033B600023D9F80420F0
:10BCF000904503F1010300F0B3810E2B09F12409F3
:10BD0000F4D100234FF0FF340993154A1D4804EB8A
:10BD1000C40302EB83034FEAC409D3F8A48080452F
:10BD200014BF3820362057F05DFDD8F8002142F0CE
:10BD30000102C8F800210B9B032B00F28F81124BEC
:10BD40000C9A1344B3F8AC13044A1048AC2303FB19
:10BD500005234FF0000C1984634622E0781A002076
:10BD6000000000203440002044950800D0DD06008B
:10BD70001055220040771B00683C0020882A1100E3
:10BD8000A0BB0D000064024024900608843B002004
:10BD9000A4000020974200F06E810133042B00F0D4
:10BDA0007B8150F83320002AF4D1B64A9C461346D2
:10BDB00052F8E82C013243F8E82C03EBCC024FEAAE
:10BDC000CC0342F8E47C03440A9FAF4A0998174425
:10BDD0009A88114399809022AC493B46FFF76CF951
:10BDE000AB4BAC49A14403EB8903AC2202FB051227
:10BDF000D3F8C430916A186861F306001860536A7A
:10BE0000196841F0020119604FF480744FF44078D2
:10BE10001021A7F86C40A7F87080A7F86810B2F856
:10BE20008CE0A7F86AE09069022100F1180C87F80D
:10BE30006E10C7F860C0D2F8885087F86F101030C5
:10BE4000099018687D664BF6EF7900EA09001860E2
:10BE5000186840F010001860186840F440501860EE
:10BE6000186861F38B201860186861F30920186066
:10BE7000196841F080011960196821F040011960CA
:10BE8000196821F02001196059686EF30F0159609B
:10BE9000C3F808C0DD601968F961596839629968AA
:10BEA00079620020D968B962A7F88C40A7F8908021
:10BEB000A7F888000999B2F8AC40C7F880100121B2
:10BEC00087F88E10A7F88A40D2F8A85087F88F100C
:10BED0001A68C7F8845002EA09021A601A681A60E0
:10BEE0001A6842F440521A601A6861F38B221A6091
:10BEF0001A6861F309221A601A6842F080021A6017
:10BF00001A6860F386121A601A6860F345121A60A4
:10BF10005A6864F30F025A6009999960DD601A68E3
:10BF2000FA625A683A639A687A63DA68BA631A6896
:10BF300042F002021A60089B8BF81030079BCBF886
:10BF40000430CBF80C60CBF81870E8E43B6823F0C1
:10BF500001033B60012400230A22BA630221CDE9D8
:10BF60000343CDE90034029306222346384658F0B5
:10BF70008FFC38462246022152F040F8BB6943F458
:10BF80000063BB61099B187900283FF4AAAEFEF755
:10BF9000DDFA099B0446DA790A21FFF7A3F90CB10F
:10BFA0005423E3807B6C43F400437B6499E60A23CB
:10BFB0003B643B6823F001033B600124002306221D
:10BFC0001146049302930093384603940194234648
:10BFD00058F05EFC22460621384652F00FF8FB6905
:10BFE00043F40063FB6177E60A237B673B6823F039
:10BFF00001033B6001240023049302930093062273
:10C000000721384603940194234658F041FC224608
:10C010000721384651F0F2FF3B6F43F008033B67BE
:10C020005AE60A23FB633B6823F001033B600124CB
:10C0300000230493029300930622042138460394BC
:10C040000194234658F024FC22460421384651F03E
:10C05000D5FFFB6943F00803FB613DE6002173E671
:10C06000DBB209935C1E50E6064A022382F8CB330A
:10C070000FB0BDE8F08FDB00A5E64FF0FF3207926E
:10C08000104631E4683C00208C1A002081800008B2
:10C0900000000020781A002000239B88FFDE002388
:10C0A0005B68FFDE70B590F87A301C09013C072C04
:10C0B0000FD8194E06EB44020546B2F84C0103F0C6
:10C0C0000F0340FA03F2D20703D595F87D20012A29
:10C0D00001D0012070BD9A40013A104026445CF026
:10C0E000F9FD96F85C310D4A034402EBC30452F8A3
:10C0F0003320A38810691840ECD0002395F87B20EA
:10C1000085F87D300A212046FFF7ECF8AA6ED36847
:10C1100043F00803D360DCE724900608B03B00201E
:10C1200038B505461446FEF7A1F9AB882A68B3FA7C
:10C1300083F3C3F11F0303F00701890013F0F80F25
:10C1400004FA01F40AD0536A0F2000FA01F123EA3D
:10C1500001035362536A1C43546238BD136A0F20B3
:10C1600000FA01F123EA01031362136A1C4314620B
:10C1700038BD00BFF8B50D4B93F8D07297B10C4D98
:10C18000C7F109070924013C0ED0AE683079FEF7EB
:10C19000DDF9297DF27908B1FFF7C2FFA74205F169
:10C1A0004C05F0D10120F8BDA368FFDE702B002004
:10C1B0003C1E00202DE9F04FDFF89CA29AF85DBBF1
:10C1C0008BB0BBF1000F03D100200BB0BDE8F08FA6
:10C1D00000222F21584612F08DF907460028F3D08F
:10C1E0000568CAF8605BFFF713F880460028EBD0BB
:10C1F0004468CAF8644B002CE6D08F4E00233246C8
:10C2000001E00E2BE0D051688C4202F1240203F1D0
:10C210000103F6D1DBB2DFF84492013B03EBC30329
:10C2200009EB830393F9BC20002ACDD158464FF087
:10C230002F0BA3F8BCB0FEF789F9CAF8680B08B158
:10C24000A0F806B0FA790A21FFF74CF87B4A0023E0
:10C2500002F56D7151F83320954200F0D58101331C
:10C260000F2BF7D1002057F0BDFA2B68744A23F04A
:10C2700001032B60D9F844339342C0F0B58103F138
:10C28000B772704902F55852A1FB0221890D01399C
:10C2900089B24A1C0139B3FBF2F36B4A6B481B0AA3
:10C2A000A2FB03321309A0FB03035B081209AAF8DF
:10C2B0006E3B013A5B00EA62AAF86C3BA9626B69CB
:10C2C00043F001036B612B6823F440732B602B68F0
:10C2D00023F070032B6097F806A00AF001021AF011
:10C2E000020A40F084811046D646524601237979ED
:10C2F000089101F1FF3B5FFA8BFB4FEA4B0109917B
:10C30000C9B20791072909D8DFE811F055010800E3
:10C310003C010800230108000A012200CDE90102C6
:10C320000022039300920799CDF810E006222846D8
:10C3300058F0AEFA2B6843F080032B60079B043B58
:10C34000032B1DD8DFE813F019011C0000011800B1
:10C350004FF0000CC5F874C00721CDE9010203932A
:10C36000CDF810E0CDF800C00622284658F090FA2B
:10C370002B6843F080032B602B6F43F008032B677F
:10C38000BBF1030F00F23E81099B2C4A1344B3F822
:10C39000AC33EA681343EB60BAF1000F00F02C8174
:10C3A000089B59000139C9B20122284651F026FEE6
:10C3B0003246002351688C4202F1240203F101034A
:10C3C00000F02D810E2BF5D14FF0FF3303EBC303AB
:10C3D00009EB83031E48D3F8A4A0824514BF38207C
:10C3E000362057F0FFF9DAF8002142F00102CAF8CE
:10C3F00000210023324651688C4202F1240203F1ED
:10C40000010300F007810E2BF5D100201149002314
:10C410006022FEF751FE236823F0010323602046CB
:10C4200050F0E0FE7B79013B032B00F2FB80DFE85C
:10C4300003F074716E1700BFA4000020249006085A
:10C44000006CDC02819F5E16598B4F01ABAAAAAA31
:10C450000064024005830008683C002000000020C2
:10C4600005F1400223684BF6EF710B40236023680F
:10C4700043F0100323602368012161F30D3323602F
:10C480002368022161F38B232360236861F309236E
:10C490002360236843F080032360236823F0400374
:10C4A0002360236823F020032360636840F22A415D
:10C4B00061F30F0363605E4BA260E3600023726868
:10C4C000944206F1240603F1010300F0A5800E2B2F
:10C4D000F5D14FF0FF3303EBC30309EB8309D8F821
:10C4E0000810D9F8C4301A6861F306021A6023688C
:10C4F00043F00203236023680120034323606B6C35
:10C5000043F400436B642B6803432B605DE605F145
:10C510003C02A7E705F13802A4E705F13402A1E7E0
:10C520004FF0000CC5F840C0CDE90102062203938C
:10C53000CDF810E0CDF800C01146284658F0A8F913
:10C540002B6843F080032B60EB6943F40063EB61DD
:10C5500016E74FF0000CC5F83CC00421CDE90102FC
:10C560000393CDF810E0CDF800C00622284658F01D
:10C570008FF92B6843F080032B60EB6943F00803CD
:10C58000EB61FDE64FF0000CC5F838C00221CDE9A3
:10C5900001020393CDF810E0CDF800C00622284632
:10C5A00058F076F92B6843F080032B60AB6943F4B5
:10C5B0000063AB61E4E64FF0000CC5F834C061469F
:10C5C000CDE901020393CDF810E0CDF800C00622BA
:10C5D000284658F05DF92B6843F080032B60AB6967
:10C5E00043F00803AB61CBE64FF0FF3155E6002086
:10C5F0004FF0010E03467AE607990122284651F0D2
:10C60000FDFCD5E60023C4E60A4A02EBC30393F817
:10C61000B80328E6D8B2F9E6DBB2013B5BE7DBB250
:10C62000013BD3E605F1340202EB83021AE700BFB7
:10C630007C8700202490060810B40C49D1F8643B94
:10C640001A6822F001021A60D1F8602B40F22A44E5
:10C6500000205C605062116841F0010111601A68AD
:10C6600042F001021A605DF8044B7047683C0020FC
:10C6700030B40B4A0B4B82B0CA25532402EB800224
:10C6800000205D625C62019001925D625C620198D3
:10C69000FF2201605A625A6202B030BC704700BF8C
:10C6A0005028004000280040F0B50E466449346828
:10C6B000D1F84413B1FBF2F1013B9BB2013987B0D1
:10C6C000E362A1626369BDF830C09DF8342043F095
:10C6D00001036361236823F440732360236823F01C
:10C6E000700323607579B37907460AB183F00103BB
:10C6F00013F0020203F001010DD108460123114697
:10C70000013D6D00EDB2072D09D8DFE805F01A08EC
:10C710004B085D086F81002001220346F0E7049278
:10C720000022CDE90101009229460393062220460A
:10C73000043D58F0ADF8032D13D8DFE805F0521290
:10C740006476C4F834C0CDE902130021049201904C
:10C7500000910622204658F09BF8A36943F0080395
:10C76000A361636C43F400436364236843F00103F3
:10C7700023607379013B032B5CD8DFE803F0100DD5
:10C780000A0204F140030022C7E900341A6007B02E
:10C79000F0BD04F13C03F6E704F13803F3E704F1DC
:10C7A0003403F0E7C4F838C004920022CDE9021344
:10C7B0000190009202210622204658F069F8A369F0
:10C7C00043F40063A361CCE7C4F83CC004920022A8
:10C7D000CDE902130190009204210622204658F070
:10C7E00057F8E36943F00803E361BAE7C4F840C0CF
:10C7F0000492002200920622CDE902130190114614
:10C80000204658F045F8E36943F40063E361A8E784
:10C81000C4F874C004920022CDE902130190009282
:10C8200007210622204658F033F8236F43F008030F
:10C83000236796E704F1340202EB8303A3E700BF0A
:10C84000000000202DE9F0478368046C93F8059000
:10C8500093F806801E68054686B0204650F0C2FC5C
:10C8600009F1FF3A002385F82C305FFA8AF35F0064
:10C87000FFB208F00208072F0DD8DFE817F0F90023
:10C880000C0002010C000B010C0008001401F269FD
:10C8900022F40062F261B8F1000F14D0022B28D804
:10C8A0004FEA490909F1FF395FFA89F80022414648
:10C8B000304651F0A3FBBAF1030F00F20381DFE829
:10C8C0000AF0A59E951DA9F10203022BEED84FEAAE
:10C8D00049010239424601F0FE013046A9F103093F
:10C8E00051F08CFBB9F1010F00F28780DFE809F00D
:10C8F0007C044FF00008D9E74FF00608F36923F4F1
:10C900004073F3614FF0060995F83B30049395F8B6
:10C910003A30039395F83930029395F83830019303
:10C9200095F83730009395F8363095F8352039462C
:10C93000304657F0ADFFB9F1040F00F0BD80B9F1FA
:10C94000060F00F0BC800023B3634146012230464D
:10C9500051F054FB072F09D8DFE807F0850880085D
:10C960007B080476F36943F40063F36123684BF6B4
:10C97000EF7110220B402A84236023681343236045
:10C98000236895F8292062F30D332360236895F816
:10C99000272062F38B232360236895F8262062F317
:10C9A00009232360236895F8252062F3C7132360C9
:10C9B000236895F8242062F386132360236895F892
:10C9C000282062F34513236063686A8C62F30F03C7
:10C9D0006360D5E90623A260E360236843F00203A5
:10C9E000236006B0BDE8F0874FF00408F36923F038
:10C9F0000303F3614FF0040986E74FF00208B369BF
:10CA000023F44073B3614FF002097DE7B36923F06B
:10CA10000303B36195F83B30049395F83A300393E0
:10CA200095F83930029395F83830019395F83730FE
:10CA3000009395F8363095F835200021304657F0B0
:10CA400027FF0023736380E7336F43F008033367E6
:10CA50008CE7F36943F00803F36187E7B36943F4B4
:10CA60000063B36182E7B36943F00803B3617DE714
:10CA7000B26922F00802B261B8F1000F3FF423AFAF
:10CA80000CE7B26922F40062B261B8F1000F3FF422
:10CA90001AAF03E7F26922F00802F261B8F1000F61
:10CAA0003FF411AFFAE6326F22F008023267B8F1B4
:10CAB000000F3FF408AFF1E60023F36345E70023DE
:10CAC000336442E795F83B30049395F83A3003938A
:10CAD00095F83930029395F83830019395F837304E
:10CAE000009395F8363095F835203946304657F0A2
:10CAF000CFFEA6E72DE9F04FA94D2B7B87B01BB9E0
:10CB0000012007B0BDE8F08FA64E2C68FCF714FE9C
:10CB100096F8D0120491002900F03781A24BA34F60
:10CB2000A3FB04235B09A7FB0327FF0807EB870789
:10CB3000A3EB47079E4B53F8BC3C05F5717406F513
:10CB40004268A0EB030BFBB206F57069039308EB98
:10CB5000870700268A460594019410E0019C204630
:10CB6000FFF770FE013623464C335645019308F11A
:10CB70005C0807F15C0709F1140900F0BB80BBF108
:10CB8000000F04DB019B1B6B5B4500F3EA80844ACA
:10CB90004C2303FB062393F8F033002BDED00198DF
:10CBA000836881891A68036C5C68D368A4B2C4F195
:10CBB000160423EA0103072CD360CFD9794A856C88
:10CBC000D2F8083F02960133C2F8083F00222868D5
:10CBD000AE469446012115E0BCF1140F1EDC13F1A2
:10CBE000080648BF03F1170633110CEB261C5E1E26
:10CBF00002FA03F30122114402FA06F68C4246EAD5
:10CC000003020BD303465EF8040FA142A0EB03031B
:10CC1000E2D3CCF115034FF0150CE8E7BCF1150F8A
:10CC2000029E5DD1634CC2F3842304EB830302F0C4
:10CC30001F00D3F82C14C2F3441304EB830304EB5A
:10CC40008000D3F82C34C2F3C432090204EB820210
:10CC500041EA0311D0F82C34D2F82C240B4343EAD8
:10CC6000023383EA132282EA121202F00F020F2A21
:10CC700036D1C3F30F134FF6FF72934230D0B3F5A2
:10CC8000606F72D0A9F80C3098F85820039882424F
:10CC900010D0B968D8F80020521AC8F80020396BB3
:10CCA000D8F80420521AC8F804200022BA603A6367
:10CCB00088F85800D8F800200132C8F80020BA6877
:10CCC0000132BA604FF6FF7293427FF447AFD8F853
:10CCD00004300133C8F804303B6B01333B633DE75C
:10CCE000304AD2F8043F0133C2F8043F9EB34FF6F6
:10CCF000FF73C9E7304B059C049F01221A712C4B2E
:10CD0000002643F8BC6C03250FE05B00BCF1020F6A
:10CD100003F1FF331DD900210122013651F06EF9D4
:10CD2000B74204F14C043FF4EBAEA36818684268C4
:10CD300065F306124260217C5B7911F0020103F178
:10CD4000FF3CA3F10202E0D15B00022AA3F102033F
:10CD5000E2D8D9B2E0E72946582218485BF0CEFE67
:10CD6000C5E7002007B0BDE8F08F0D4991F82526F2
:10CD700002EB420201EBC202324492F835260D2A40
:10CD800080D1802289F81E207EE7064B084A03F5F1
:10CD9000805301211971049B42F8BC3CB0E600BFEE
:10CDA000781A0020702B00201F85EB51CDCCCCCC05
:10CDB000683C002024900608703B00201C3B0020AB
:10CDC0002DE9F047884600294AD04618DFF89890A8
:10CDD000DFF898A0451E013E8024EFF3118184F313
:10CDE0001288D9F8C432D9F8C802D9F8C422D9F8BF
:10CDF000C8C2C9B281F31188624512E00120FDF773
:10CE00005DF9EFF3118184F31288D9F8C432D9F8AF
:10CE1000C802D9F8C422D9F8C872C9B281F31188FE
:10CE2000BA428CBF002201221B1A03EBC223012B42
:10CE3000E4D0EFF3118284F31288D9F8C83215F8E0
:10CE4000011F5344D2B283F8701BD9F8C8320133A2
:10CE5000C3F30A03C9F8C83282F31188B542BCD1C2
:10CE60004046BDE8F08700BF702B0020683C0020E2
:10CE7000F8B50C4E96F8C83C032B00D0F8BD3768C7
:10CE80000D46144608E0FFF79BFF3368DB1B322B8F
:10CE9000A4EB00040544F1D8002C21462846F2DC1E
:10CEA000F8BD00BF781A0020344BD3F8E839596A2E
:10CEB00091F85230012B56D170B5314C314AD4F82B
:10CEC000780260BBD2F8C402D2F8C832984221D0AE
:10CED000D2F8C402D2F8C832984249D8D2F8C8323F
:10CEE000D2F8C4021B1AD2F8C42291F8520088B1B9
:10CEF000B3F5007F28BF4FF400731D46002381F86F
:10CF00005230214921480A44ABB2812151F07AF9CB
:10CF1000C4F878521E4B6FF001021A6170BDD2F84E
:10CF2000C45200F03F032844C2F8C402D2F8C4023D
:10CF3000B0F5006F04BF0020C2F8C4020020C4F89E
:10CF40007802002BBED1D2F8C42291F852000028FA
:10CF5000E4D00D4881F852300244BDE870400B48DF
:10CF6000812151F04FB90A4B6FF001021A617047ED
:10CF7000D2F8C432C3F50063B5E700BF781A0020C9
:10CF8000604D0020702B0020D84700205C2400203A
:10CF9000004C01402DE9F04FA94DD5F8E089D8F8B3
:10CFA0001460D8F81820D8F81430DB0785B026D4E0
:10CFB0001640B70744BF0223C8F81430740300F1C9
:10CFC0009880300300F12A81F20400F15F8131077B
:10CFD00008D5D5F8E839DB690BB19A48984708239A
:10CFE000C8F81430B2040DD4F30640D4F70257D475
:10CFF000B40262D4002EC0F2BB8130056BD405B000
:10D00000BDE8F08FD5F8E4498F49D4F800396FF3C3
:10D010000A03C4F80039D4F8043823F48073C4F840
:10D020000438E368052262F38D23E3604FF0400982
:10D0300001272046C5F8589BA5F8527B51F00AF805
:10D0400000238249A5F8F2392046C5F8F89951F035
:10D0500001F8D5F8E83985F8C87C5B680BB17948E8
:10D0600098474FF40053C8F81430F306BED5D5F8EE
:10D07000E4399A6922F010029A611A6AC2F34341B4
:10D080000229C2F30A1702F00F0200F045820629B6
:10D0900000F0CA839A69F70242F010029A61A7D59C
:10D0A000D5F8E8391B6A13B16648052198474FF453
:10D0B0008013B402C8F814309CD5D5F8E8391B6A3F
:10D0C00013B16048062198474FF40013002EC8F8AA
:10D0D000143092DA4CE1D5F8E439D3F80828D107B6
:10D0E00000F13E824FF40063C8F8143005B0BDE88B
:10D0F000F08FD5F8E439D3F81878D3F81C28174006
:10D10000BFB203F50061002F3FF45BAF4FF0000AA0
:10D11000CDE901864E4C03F5106B5646884608E073
:10D120007F0806F1010604F12C040BF1200B00F03E
:10D130004081F907F4D5D8F81020D8F8343023FA14
:10D1400006F94FEAC919DBF808305FFA89F949EAAC
:10D15000020909EA030919F0010F40F03E8119F0B4
:10D16000080F1CBF0823CBF8083019F0100F1CBFA4
:10D170001023CBF8083019F0400F1CBF4023CBF828
:10D18000083019F0020F1CBF0223CBF8083019F049
:10D19000800FC5D0D5F8E499A26AE36AA16909F5C0
:10D1A000106A0AEB461AA2EB030E8E45DAF8180055
:10D1B00028BF8E4680B20EF10301B0EB910F40F212
:10D1C000FF8009F5805C0CEB063C039611468B4210
:10D1D00080F0F580A269C91A914228BF114688B231
:10D1E0000330CE1C8010626A8E464FEA960609D044
:10D1F0000023013352F8041BCCF800109842F8D1F8
:10D20000626AE36A72446262DAF8182092B2734486
:10D210009642E36280F0D380A16AD8E7D5F8E4793A
:10D22000D7F81848D7F81C381C40240C07F5006CB8
:10D230003FF4CAAE07F530674FF00009E34610E04F
:10D24000781A00205C240020C825002068240020D3
:10D2500058240020640809F1010907F120073FF470
:10D26000B3AEE307F6D5BA68DBF8143002EA030A76
:10D270001AF0010F40F011811AF0080F40F0D5802C
:10D280001AF0100F1CBF1023BB60E3E7D5F8E44988
:10D29000D4F8043823F00103C4F8043854F05EFDD8
:10D2A0002269C14B102161F38A122261226942F086
:10D2B000200204F50067226101E0013B02D02269EF
:10D2C0009006FAD404F5106304F52061FF229A60F9
:10D2D000C3F8082220338B42F9D14FF0FF33BB61F2
:10D2E0004FF00113FB617B6943F001037B617B69B4
:10D2F00043F002037B617B6943F008037B613B6978
:10D3000043F001033B613B6943F002033B613B692E
:10D3100043F008033B61D4F8003823F4FE63C4F8FB
:10D3200000380023C4F8103BD4F8103B012161F30E
:10D33000DC43C4F8103BD4F8103B182262F312030C
:10D34000C4F8103BD4F8103B43F0C043C4F8103B82
:10D35000D5F8E83985F8C81C1B6A0BB19348984783
:10D360004FF480533107C8F814307FF53BAE30E6F8
:10D37000D5F8E439D3F8042822F00102C3F80428D0
:10D38000D3F8002E22F00102C3F8002E95F8C92C24
:10D39000D5F8E83985F8C82C1B6A13B183480321F6
:10D3A00098474FF000433005C8F814307FF527AE9A
:10D3B00091E6DDE9018630037FF506AE2EE7039E98
:10D3C000BEF1000F7FF4ACAED9F834380122B24080
:10D3D00023EA0203C9F83438A2E6D8F8343001222F
:10D3E00002FA06F123EA0103C8F83430CBF808202A
:10D3F000002E72D195F8C43C022B7FF4B0AED5F864
:10D40000141AD5F8F839994240F25082C91A8B4261
:10D41000C5F8141A88BF8BB2D5F8042A634898BFA0
:10D420009BB2002150F0EEFE99E60823BB60B5F8F0
:10D43000B82CB5F8BE3CD5F8BA1CA5F8B02C02F053
:10D440001F0C0120BCF1010F85F8C40CA5F8B63CF7
:10D45000B5F8BC0CA5F8C63CC5F8B21C5FFA82FE54
:10D4600000F0C481BCF1020FC2F3072200F07B81FF
:10D47000BCF1000F00F0898095F8CA3C002B3FF406
:10D48000FFAED5F8E429D2F80018002063F30A11A2
:10D49000C2F8001885F8CA0CF2E60123BB60B9F1A6
:10D4A000000F29D195F8C43C032B7FF4E5AED5F8E5
:10D4B000741BD5F8583B994240F2CF81C91A8B4270
:10D4C000C5F8741B88BF8BB2D5F8642B374898BF5A
:10D4D0009BB2002150F084FFCEE6D5F8E8395B69B5
:10D4E000002B3FF43CAE95F8C82C032A7FF437AEEE
:10D4F000F1B22E48984732E6D5F8E8399B69002BFF
:10D500003FF4BAAE95F8C82C032A7FF4B5AE5FFAA3
:10D5100089F126489847AFE6002F3FF4BBAD2C2198
:10D5200001FB025107F1030CD1F8649B4FEAAC0CEC
:10D5300003F5805E484600210131DEF8004040F8E6
:10D54000044B6145F8D12C2101FB025209EB070085
:10D55000D2F86C1BC2F8640B3944C2F86C1B99E515
:10D5600095F8C82C85F8C92C042285F8C82CD3F866
:10D570000828D2071CD4D5F8E8391B6A002B3FF4E1
:10D58000B1AD022109489847ACE51EF0600F40F0AC
:10D59000778189B2092A12D8DFE802F05D3B11BC1D
:10D5A00011D29211791500BF420D03005C240020B6
:10D5B000D3F8002E42F00102C3F8002EDBE7B44896
:10D5C00050F0E2FD58E7CAB2B249034381F87C2229
:10D5D0000193F4D195F8C83C022B00F0F481032BA1
:10D5E000EDD1002A40F0D881D5F8E83985F8CD2C66
:10D5F000022185F8C81C5B68A54801929847019AEA
:10D60000A348042385F8C43C1146134650F0FAFDA4
:10D6100032E795F8C83C023B012BD0D801297FF4B2
:10D620002BAFD5F8D03CD5F8E8299B4923F002036D
:10D63000C5F8D03C002385F8CB3C9268A1F5337047
:10D640009047042285F8C42C002391481A461946B5
:10D6500050F0D8FD10E795F8C83C023B012BAED83E
:10D6600095F8CB3C2BB1D5F8D03C43F00203C5F87C
:10D67000D03C8A4A02230021A2F53B70C5F8183A33
:10D68000C5F8143A85F8C43C50F0BCFDF4E6012B13
:10D6900095D195F8C82C022A00F0C981032A8ED1B1
:10D6A0007F4AC5F8183A02216FF43A7C85F8C41C09
:10D6B00002EB0C000021C5F8143A50F0A3FDDBE6A4
:10D6C0000B0A022B00F0E281032B00F0D681012B24
:10D6D0007FF475AFD5F8EC391B68984700283FF404
:10D6E000CBAE0388002B3FF4C7AEB5F8B61C0029BB
:10D6F0003FF4C2AE8B4228BF0B460221426885F838
:10D70000C41C6348C5F8183A0021C5F8143A50F013
:10D7100079FDB1E601297FF4AFAE85F8CB1CD5F8D1
:10D72000E8395D499B68A1F53370984700230422CE
:10D7300085F8C42C56481A46194650F063FD9BE6FE
:10D7400003437FF43CAF95F8C82C032A01F07F0116
:10D750003FF435AF00290CBF0122022285F8CA1C14
:10D7600085F8C82CE3E70EF0600E0B0CBEF1200F1D
:10D770000193C1F307430AD1D5F8E82946499268D5
:10D780000293A1F53370904795F8B12C029B012AC2
:10D7900000F0CC80032A00F0AC80002A7FF40FAFA9
:10D7A00095F8C82C022A00F09C80032A7FF407AF6A
:10D7B000019A100600F1E8803A4A2C2101FB03226D
:10D7C00002F5B872537B3248A3F10103B3FA83F335
:10D7D0005B0942F8103F00210223C5F8183AC5F84A
:10D7E000143A85F8C43C50F00DFD45E695F8C83C68
:10D7F000032B7FF4E4AE264BD5F8E8290193926819
:10D8000003F5337118469047B5F8B62C019B002AF2
:10D810007FF432AE18460422002385F8C42C194642
:10D820001A4650F0EFFC27E607F1030C5FEAAC0C58
:10D830000AD01D4803F5805E00210131DEF800406A
:10D8400040F8044B8C45F8D12C2101FB0252D2F850
:10D850006C1B3944C2F86C1B1CE4D5F8E8391A6912
:10D860000B4B1AB1184601939047019B18460422AE
:10D87000002385F8C42C19461A4650F0C3FCFBE47B
:10D88000D5F8E83904499B68A1F533709847F3E56A
:10D890005C240020604D002028270020482700201D
:10D8A000452700205824002030270020D5F8102AD2
:10D8B00093424CD0D5F8E839DB68002B5FD095F85F
:10D8C000C82CDFF810A2032A01D150469847002344
